{
  "transactions": [
    {
      "hash": "0xc01eb7cd2a12fa770b9362cc73d0fb2401fc96102ecbbcedc683395a7af94bf9",
      "transactionType": "CALL",
      "contractName": "NFT",
      "contractAddress": "0xc7f2cf4845c6db0e1a1e91ed41bcd0fcc1b0e141",
      "function": "setURI(string)",
      "arguments": [
        "\"https://gateway.pinata.cloud/ipfs/bafkreicfpkqo3vh37wqbgpxsq6yd5gbnhzrsbzu7vt7be4prltnry2xpee\""
      ],
      "transaction": {
        "from": "0x916e23640a79ecc8758526ffac908a4b70f5a59d",
        "to": "0xc7f2cf4845c6db0e1a1e91ed41bcd0fcc1b0e141",
        "gas": "0x7b40",
        "value": "0x0",
        "input": "0x02fe53050000000000000000000000000000000000000000000000000000000000000020000000000000000000000000000000000000000000000000000000000000005d68747470733a2f2f676174657761792e70696e6174612e636c6f75642f697066732f6261666b7265696366706b716f337668333777716267707873713679643567626e687a7273627a753776743762653470726c746e72793278706565000000",
        "nonce": "0x16",
        "chainId": "0x117c4"
      },
      "additionalContracts": [],
      "isFixedGasLimit": false
    }
  ],
  "receipts": [
    {
      "status": "0x1",
      "cumulativeGasUsed": "0x1655d",
      "logs": [],
      "logsBloom": "0x00000000000000000000000000000000000000000000000000000000000000000000000000000000000000000000000000000000000000000000000000000000000000000000000000000000000000000000000000000000000000000000000000000000000000000000000000000000000000000000000000000000000000000000000000000000000000000000000000000000000000000000000000000000000000000000000000000000000000000000000000000000000000000000000000000000000000000000000000000000000000000000000000000000000000000000000000000000000000000000000000000000000000000000000000000000",
      "type": "0x2",
      "transactionHash": "0xc01eb7cd2a12fa770b9362cc73d0fb2401fc96102ecbbcedc683395a7af94bf9",
      "transactionIndex": "0x2",
      "blockHash": "0x75c19ec59081657d476461baf240e4ba3ebca12d5b9372156540ae48f117572e",
      "blockNumber": "0x3b2fe",
      "gasUsed": "0x593c",
      "effectiveGasPrice": "0x9502f900",
      "from": "0x916e23640a79ecc8758526ffac908a4b70f5a59d",
      "to": "0xc7f2cf4845c6db0e1a1e91ed41bcd0fcc1b0e141",
      "contractAddress": null,
      "l1Fee": "0x0",
      "l1FeeScalar": "1",
      "l1GasPrice": "0x0",
      "l1GasUsed": "0xe30"
    }
  ],
  "libraries": [],
  "pending": [],
  "returns": {},
  "timestamp": 1719222643,
  "chain": 71620,
  "commit": "ac60169"
}