{
  "transactions": [
    {
      "hash": "0xeed9b205a294ae04ceb97ee246d27937763061cf5cbffdae3f408617294ccba8",
      "transactionType": "CALL",
      "contractName": null,
      "contractAddress": "0xdf954b362dcab3b2b5af49d79be221fec21489cc",
      "function": "setURI(string)",
      "arguments": [
        "\"https://stratovmnft.s3.eu-central-1.amazonaws.com/metadata.json\""
      ],
      "transaction": {
        "from": "0x916e23640a79ecc8758526ffac908a4b70f5a59d",
        "to": "0xdf954b362dcab3b2b5af49d79be221fec21489cc",
        "gas": "0x20da3",
        "value": "0x0",
        "input": "0x02fe53050000000000000000000000000000000000000000000000000000000000000020000000000000000000000000000000000000000000000000000000000000003f68747470733a2f2f73747261746f766d6e66742e73332e65752d63656e7472616c2d312e616d617a6f6e6177732e636f6d2f6d657461646174612e6a736f6e00",
        "nonce": "0x9",
        "chainId": "0x16e33"
      },
      "additionalContracts": [],
      "isFixedGasLimit": false
    }
  ],
  "receipts": [
    {
      "status": "0x1",
      "cumulativeGasUsed": "0x212ab",
      "logs": [],
      "logsBloom": "0x00000000000000000000000000000000000000000000000000000000000000000000000000000000000000000000000000000000000000000000000000000000000000000000000000000000000000000000000000000000000000000000000000000000000000000000000000000000000000000000000000000000000000000000000000000000000000000000000000000000000000000000000000000000000000000000000000000000000000000000000000000000000000000000000000000000000000000000000000000000000000000000000000000000000000000000000000000000000000000000000000000000000000000000000000000000",
      "type": "0x2",
      "transactionHash": "0xeed9b205a294ae04ceb97ee246d27937763061cf5cbffdae3f408617294ccba8",
      "transactionIndex": "0x1",
      "blockHash": "0xd04c8b1afd70236ddb97e754d0ddc82c0766f13bc90564300e59303c77d3beba",
      "blockNumber": "0x755e9",
      "gasUsed": "0x16769",
      "effectiveGasPrice": "0xfd",
      "from": "0x916e23640a79ecc8758526ffac908a4b70f5a59d",
      "to": "0xdf954b362dcab3b2b5af49d79be221fec21489cc",
      "contractAddress": null,
      "l1BaseFeeScalar": "0x10b30",
      "l1BlobBaseFee": "0x2",
      "l1BlobBaseFeeScalar": "0x0",
      "l1Fee": "0x16c3965f7ff",
      "l1GasPrice": "0x2ccce103d",
      "l1GasUsed": "0x76d"
    }
  ],
  "libraries": [],
  "pending": [],
  "returns": {},
  "timestamp": 1721220713,
  "chain": 93747,
  "commit": "f4353eb"
}